:020000020000FC
:10000000EFEFE4BBA89A0E94A7000E94A7000E94FD
:10001000A7000E94A700A8980E94A7000E94A7001E
:100020000E94A70000E01FEF07BB11BB26B332E020
:10003000321B09F440E037E0321B09F441E036E0BE
:10004000321B09F442E035E0321B09F443E03BE0A7
:10005000321B09F444E03AE0321B09F445E039E090
:10006000321B09F446E03FE0321B09F447E03EE072
:10007000321B09F448E03DE0321B09F449E0A89A3C
:100080000E94A7000E94A7000E94A7000E94A7004C
:100090000E94A700A8980E94A7000E94A7000E94A3
:1000A000A7000E94A7000E94A7000E94A70056B3C5
:1000B000A89A0E94A7000E94A7000E94A7000E9481
:1000C000A7000E94A7000E94A7000E94A700A8986E
:1000D0000E94A7000E94A7000E94A7000E94A700FC
:1000E0000E94A7000E94A70076B382E0871B09F454
:1000F00090E087E0871B09F491E086E0871B09F414
:1001000092E085E0871B09F493E08BE0871B09F4FC
:1001100094E08AE0871B09F495E089E0871B09F4E5
:1001200096E08FE0871B09F497E08EE0871B09F4C7
:1001300098E08DE0871B09F499E060E0651B09F405
:10014000490F64E0651B09F4491B42BB59CFA2E388
:10015000B4E6C4E6CA95F1F7BA95D9F7AA95C1F7FE
:040160000895089561
:00000001FF
